:020000040800F2
:10000000B825002045010008031D0008E91B000871
:10001000011D0008BD0200088D3C00080000000022
:10002000000000000000000000000000B5290008EA
:10003000FD0300080000000087200008B729000821
:100040005F0100085F0100085F0100085F01000810
:100050005F0100085F0100085F0100085F01000800
:100060005F0100085F0100085F0100085F010008F0
:100070005F0100085F0100085F0100085F010008E0
:100080005F0100085F0100085F0100085F010008D0
:10009000253C00085F0100085F0100085F010008BF
:1000A0005F0100085F0100085F0100085F010008B0
:1000B0005F0100085F0100085F0100085F010008A0
:1000C0005F0100085F0100085F0100085F01000890
:1000D0005F0100085F0100085F0100085F01000880
:1000E0005F0100085F0100085F0100085F01000870
:1000F0005F0100085F0100085F0100085F01000860
:100100005F010008C12000085F0100085F010008CE
:100110005F0100085F0100085F0100085F0100083F
:100120005F0100085F0100085F0100085F0100082F
:10013000DFF80CD000F040F800480047CD4E000832
:10014000B82500200648804706480047FEE7FEE73E
:10015000FEE7FEE7FEE7FEE7FEE7FEE7FEE7FEE777
:100160003D2A00083101000840EA01039B0703D043
:1001700009E008C9121F08C0042AFAD203E011F8E6
:10018000013B00F8013B521EF9D2704730B50B46D7
:10019000014600202022012409E021FA02F59D42B7
:1001A00005D303FA02F5491B04FA02F52844151E8B
:1001B000A2F10102F1DC30BD064C074D06E0E0681B
:1001C00040F0010394E8070098471034AC42F6D39E
:1001D000FFF7B2FF345300085453000870B58C1871
:1001E00010F8015B15F0070301D110F8013B2A114B
:1001F00006D110F8012B03E010F8016B01F8016B38
:100200005B1EF9D12B0705D40023521E0DD401F833
:10021000013BFAE710F8013BCB1A921C03E013F8FC
:10022000015B01F8015B521EF9D5A142D8D3002031
:1002300070BD00000146014801F085B9940100201D
:1002400010B5044801F091F9042801D0012010BD37
:10025000002010BD9401002082B001208DF8000024
:100260009DF80000012802D0012002B0704702482A
:1002700002B001F071BA00009401002038B50024EA
:10028000009313460A460146034801F0DFFA00B125
:100290000124204638BD00009401002038B5002418
:1002A000009313460A460146034801F0ABFB00B138
:1002B0000124204638BD000094010020FEE7000024
:1002C00008480121C0F8BC1100F5DE7000BF00BF76
:1002D00000BF00BF0021016000BF00BF00BF00BF22
:1002E000704700000080214230B50346274AC0060F
:1002F0004FF001054FF0000402D5C2F8B85101E0FB
:10030000C2F8B841FFF7DCFF980602D5C2F8B85131
:1003100001E0C2F8B841FFF7D3FF580602D5C2F892
:10032000B85101E0C2F8B841FFF7CAFF180602D57C
:10033000C2F8B85101E0C2F8B841FFF7C1FF180791
:1003400002D5C2F8B85101E0C2F8B841FFF7B8FFD2
:10035000580702D5C2F8B85101E0C2F8B841FFF71A
:10036000AFFF980702D5C2F8B85101E0C2F8B84112
:10037000FFF7A6FFD80702D0C2F8B85101E0C2F8D3
:10038000B841BDE83040FFF79BBF0000008021422C
:1003900008480121C0F8B41100F5DA7000BF00BFB1
:1003A00000BF00BF0021016000BF00BF00BF00BF51
:1003B00070470000008021420020704700207047F5
:1003C00010B500220449054802F02CFC04490348FA
:1003D00002F022FC002010BDBC140020980A00206E
:1003E000BC0C002010B50146034802F015FC024881
:1003F00002F0F6FB002010BD980A00207047002292
:10040000AFF3008030B50E4B054601205C7A012C1D
:1004100015D8587A00241C54587A03EB80004560A4
:100420005D7A03F108002A54587A421C5A7230301F
:1004300008703A2048702F208870CC70002030BDA2
:10044000D41C00202DE9F05F90F82110002402292F
:1004500003D004218163012485E001680A6822F049
:100460000E020A6001680A6822F001020A603F4E2B
:100470003E4FB215DFF8F4C0DFF8F090DFF8ECA0E3
:10048000DFF8E8B0DFF8E4E00168783F1301150217
:10049000ACF1640CA9F15009AAF13C0AABF1280BAC
:1004A000AEF1140E4FF48018B14227D9B9420ED0E4
:1004B000614512D049451DD0514518D0594518D035
:1004C000714501D1424615E0294EB14201D10122C8
:1004D00010E0274E1436B14201D110220AE0244E1A
:1004E0002836B14206D0224A3C32914201D11A4606
:1004F00000E02A461E49091F0A602BE0B94213D0CA
:10050000614517D0494522D051451DD059451DD0D0
:10051000714501D142461AE0B14202D14FF08072DA
:1005200015E0134EB14201D1012210E0104E1436F5
:10053000B14201D110220AE00D4E2836B14206D058
:100540000B4A3C32914201D11A4600E02A46074943
:1005500080394A60012180F82110002180F82010A4
:10056000416B01B188472046BDE8F09F8000024002
:100570000804024031B500F00DF9009C0546601CEE
:1005800000D0641C00F006F9401BA042FAD338BD2D
:100590002DE9F84FDFF8B8A100220AF1040B144648
:1005A00001274FF00F090BF1040E00BF0B6807FA8B
:1005B00004F52B40AB4274D1DFF898C14E68A6EB2E
:1005C0000C0866452BD00DDC032E34D005DC36B389
:1005D000012E19D0022E2FD11BE0112E16D0122E73
:1005E0002AD119E0B8F5881F19D006DCB8F5803F8C
:1005F00015D0B8F5801F1FD111E0B8F5001F0ED03F
:10060000B8F5041F18D10AE0CA6815E0CA68121DBF
:1006100012E0CA6808320FE0CA680C320CE08A683F
:100620002AB1012A4FF0080203D0456104E00422F8
:1006300002E0056100E00022FF2B01D8064601E040
:1006400000F104064FEA840501D9A5F12005D6F88A
:1006500000C009FA05F82CEA080C02FA05F54CEA84
:10066000050CC6F800C04D68ED006AD53A4DAE697C
:1006700046F00106AE61AD6924F0030605F0010500
:100680000095364D06EB050CDCF80850A6074FEA3E
:10069000167809FA08F6B543314EB04202D1002669
:1006A0001AE04EE02F4EB04201D1012614E02E4E4A
:1006B000B04201D102260FE02C4EB04201D10326F8
:1006C0000AE02B4EB04201D1042605E0294EB0428B
:1006D00001D1052600E0062606FA08F62E43CCF8DE
:1006E00008604D68DAF80060ED03554601D51E43F9
:1006F00000E09E432E604D68AD0305D5DBF8006039
:100700001E43CBF8006004E0DBF800509D43CBF8BB
:1007100000504D68DEF80060ED02754601D51E43BD
:1007200000E09E432E604D68AD0205D5084D0C35A6
:100730002E681E432E6004E0054E0C3635689D433E
:100740003560641C102CFFF431AFBDE8F88F000059
:1007500000040140000011100010024000000140A0
:1007600000080140000C014000100140001401404D
:1007700000180140001C01408068084000D00120A2
:100780007047C2684A40C26070470AB10161704751
:100790000904FBE70148006870470000580000208A
:1007A00002480168491C01607047000058000020A1
:1007B000074810B5016841F010010160032000F006
:1007C00093F8002000F006F800F018F8002010BDA3
:1007D0000020024010B5044607484FF47A710068C3
:1007E000B0FBF1F001F0E8F900222146501E00F0C4
:1007F0005BF8002010BD00005C000020224808B516
:10080000816941F001018161806900F0010000907F
:10081000032000F069F8002211466FF00B0000F091
:1008200043F8002211466FF00A0000F03DF8002264
:1008300011466FF0090000F037F800221146501FF2
:1008400000F032F800221146101F00F02DF80022AF
:100850001146901E00F028F800221146501E00F0AC
:1008600023F80A48416821F0E0614160416841F0A5
:1008700080614160416821F0E0614160416841F080
:100880000071416008BD00000010024000000140FE
:1008900000F01F02012191404009800000F1E0209A
:1008A000C0F8001170470000F0B40E4B1B680C46F6
:1008B000C3F30223C3F10705042D00D90425191D34
:1008C000072901D2002300E0DB1E012606FA05F10C
:1008D000491E214099409E40761E16403143F0BC8F
:1008E00001F010BA0CED00E0064900F007020868BC
:1008F0004FF6FF03184040EA0220034A1043086005
:10090000704700000CED00E00000FA0510B50C0681
:1009100005D501F07F0100EB4110283003E000EB2A
:10092000411000F50A7099B232B101228272C18081
:10093000190C0181002010BD002282728180F9E72C
:10094000704700EB4112D0F85C04D26B02F030BB70
:1009500000EB4112D0F85C04D2F83C2202F07DBBDF
:1009600010B504460A460B0601F07F0004EB401167
:1009700001D5283101E001F50A710870D0094870ED
:1009800094F82804012809D0012084F8280420685C
:1009900002F064FF002084F8280410BD022010BD7E
:1009A00070B50A460446090602F07F0003D504EB41
:1009B0004011283103E004EB421101F50A710025D2
:1009C0008D700870D009487094F82804012809D067
:1009D000012084F82804206802F0EEFF84F82854EF
:1009E000002070BD022070BD01F00F0100EB41102E
:1009F000B0F8440280B2704770B504460D460E064A
:100A000001F07F0004EB401101D5283101E001F530
:100A10000A710870E80948700A61CB7094F82804DC
:100A2000012809D0012084F82804206802F0E6FD9E
:100A3000002084F8280470BD022070BD70B50C46FB
:100A400001F07F0500EB4511C1E98F230022C1F8B9
:100A5000442281F8292281F8285201F50A716206A0
:100A6000006803F003F8002070BD70B50D46044621
:100A7000090605F07F0003D504EB4011283103E09F
:100A800004EB451101F50A7101228A700870E8092A
:100A9000487094F82804012807D084F82824206896
:100AA00002F0BFFF680602D006E0022070BD04F22B
:100AB0002C41206802F07EFF002084F8280470BDDD
:100AC00070B50C4601F07F0500EB4511C1E90F231D
:100AD00000224A64012281F8292001F8285F620679
:100AE000006802F0C3FF002070BD10B50446006826
:100AF00003F09EF8000402D5204601F013F92068A7
:100B000003F096F840050CD5206830F8441F21F416
:100B100080610180204600F0EDF80021204600F0C1
:100B2000FEF8206803F084F8400405D5206830F80A
:100B3000441F21F480410180206803F079F880048B
:100B400005D5206830F8441F21F400510180206849
:100B500003F06EF8C00414D5206830F8401F21F06F
:100B600004010180206830F8401F21F00801018055
:100B7000204600F0CCF8206830F8441F21F4805162
:100B80000180206803F054F800051AD5206830F879
:100B9000401F41F008010180206830F8441F21F413
:100BA00000610180206830F8401F41F0040101809D
:100BB000206803F03DF8C043C00402D5204600F091
:100BC000E3F8206803F034F8800508D5206830F891
:100BD000441F21F400710180204600F09CF8206839
:100BE00003F026F8C00505D5206830F8441F21F42D
:100BF0008071018010BD00002DE9F04186B0040035
:100C00004FF0000504D094F82904002620B108E034
:100C1000012006B0BDE8F08184F82864204600F089
:100C20004BF8032084F82904206802F0BCFE04F18C
:100C30001001142288466846FFF796FA94E80F00E0
:100C400002F00AFE0021206803F005F85FF00107BA
:100C500004EB451080F8297000F8285F8581C67084
:100C6000066146616D1C86610F2DF1D35FF00000B7
:100C700004EB401181F8296281F82802888681F806
:100C80002B62C1F83862C1F83C62401CC1F8406276
:100C90000F28EDD3142241466846FFF765FA94E821
:100CA0000F0002F071FE84F8246084F82974206833
:100CB00002F068FE0020ACE708B500680B498842E6
:100CC00012D10B48C16941F40001C161C069002221
:100CD00000F40000009011461420FFF7E5FDBDE888
:100CE00008401420FFF7D4BD08BD0000005C0040A0
:100CF0000010024010B504460121D0F85C0402F057
:100D000097FAD4F85C04BDE8104002F060BAD0F85D
:100D10005C0402F07BBAD0F85C0402F07DBA10B536
:100D2000044690F8280401280BD0012084F82804F8
:100D300084F82410206802F090FF002084F8280432
:100D400010BD022010BDD0F85C2400F22C411046EA
:100D500002F081BA10B5044690F82804012810D09A
:100D6000012084F8280401462046FFF7E9FD2068A9
:100D700002F006FE206802F04EFF002084F82804EE
:100D800010BD022010BD000010B50446D0F85C0470
:100D900002F0AEFAA069002804D00348016841F0CF
:100DA0000601016010BD000010ED00E02DE9F843E0
:100DB00005460078354CC00754D0E0690026C000D5
:100DC00008D4E06940F08050E061E069012600F05D
:100DD000805000902E480168C90512D401688046F1
:100DE00041F480710160FFF7D5FC074605E000BFC4
:100DF000FFF7D0FCC01B642823D8D8F80000C0053A
:100E0000F6D5206A10F4407021D0A98801F4407111
:100E100081421CD0206A1F49012220F440700A60E0
:100E200000220A602062C00711D0FFF7B3FC07461A
:100E300041F2883808E000BFFFF7ACFCC11B414518
:100E400002D90320BDE8F883206A8007F4D5206A20
:100E5000696820F44070084320621EB1E06920F008
:100E60008050E0612878800705D56068A96820F483
:100E70004040084360602878C00605D5606869690D
:100E800020F48000084360600020DBE7001002408F
:100E900000700040400442422DE9F047DFF83C81F9
:100EA00005460E46D8F8000000F00700B0420CD20C
:100EB000D8F8001021F007013143C8F80010D8F825
:100EC000000000F00700B04263D12878444C80074E
:100ED00005D56068A96820F0F000084360602878B4
:100EE000C00745D06868012816D02168022816D0AE
:100EF000890700294DDA616821F00301014361602F
:100F0000FFF748FC6968074641F2883001290FD095
:100F10000229814619D027E021688903E9E7890180
:100F2000E7E700BFFFF736FCC11B494501D918E0D0
:100F300081466068C0F381000128F3D118E000BF4A
:100F4000FFF728FCC11B49450BD86068C0F381003E
:100F50000228F5D10CE000BFFFF71CFCC11B49457E
:100F600002D90320BDE8F087606810F00C0FF3D1C0
:100F7000D8F80010404601F00701B1420BD90168D2
:100F800021F0070131430160006800F00700B04222
:100F900001D00120E6E72878400705D56068E968B8
:100FA00020F4E060084360602878000706D5606898
:100FB000296920F4605040EAC100606000F01CF82C
:100FC0006168084AC1F30311515CC84006490860D2
:100FD0000020FFF7FFFB0020C4E7000000200240D4
:100FE00000100240245300085C0000200148006803
:100FF000704700005C00002010B512A385B00FCB35
:101000008DE80F0013A0144B006804905A68134831
:1010100002F00C0104290FD008290DD1C2F383443A
:10102000D2031DF8041009D55A6804ABC2F340423C
:101030009A5CB0FBF2F0484305B010BD0848484345
:10104000FAE7000002030405060708090A0B0C0D65
:101050000E0F1010010200000010024000127A0072
:1010600000093D002DE9F84F04460078B94DC0074E
:1010700048D06868C0F38100012807D06868C0F3D1
:101080008100022809D16868C00306D5286880035A
:1010900038D5606800286FD034E06068B0F5803FD4
:1010A0000BD010B1B0F5A02F11D0286820F48030FB
:1010B0002860286820F4802002E0286840F480300E
:1010C0002860606888B1FFF765FB064609E028687C
:1010D00040F480202860F0E7FFF75CFB801B642869
:1010E00075D828688003F7D50CE0FFF753FB064658
:1010F00005E000BFFFF74EFB801B6428F0D828688E
:101100008003F7D42078944E80074FF001094FF008
:1011100000083BD5686810F00C0F07D06868C0F372
:101120008100022809D16868C00306D428688007B6
:1011300014D5206901281FD110E02069B0B1C6F88C
:101140000090FFF727FB074605E000BFFFF722FBF3
:10115000C01B0228C4D828688007F7D528686169B1
:1011600020F0F80040EAC10028600FE0C6F80080D7
:10117000FFF710FB074606E0E9E000BFFFF70AFBB8
:10118000C01B022823D828688007F7D420780007DE
:101190002CD57248A169D9B1C0F80090FFF7FAFACE
:1011A000074604E0FFF7F6FAC01B02280FD8686A6A
:1011B0008007F7D56A484FF4FA510068B0FBF1F0A8
:1011C000009000BF0098411E0091FAD20EE080E02E
:1011D000C0F80080FFF7DEFA074604E0FFF7DAFA0E
:1011E000C01B022875D8686A8007F7D420784007AA
:1011F00060D5E8690027C00008D4E86940F0805055
:10120000E861E869012700F08050009055480168C6
:10121000C90513D40168834641F480710160FFF76A
:10122000B9FA824606E000BFFFF7B4FAA0EB0A0065
:1012300064284ED8DBF80000C005F5D5E068012829
:101240000AD008B1052813D0286A20F001002862CE
:10125000286A20F0040002E0286A40F001002862B9
:10126000E06841F2883B98B1FFF794FA82460BE0C0
:10127000286A40F004002862EEE700BFFFF78AFA10
:10128000A0EB0A0159455AD8286A8007F6D50CE028
:10129000FFF780FA824605E0FFF77CFAA0EB0A012F
:1012A00059454CD8286A8007F6D41FB1E86920F068
:1012B0008050E861E06988B36968C1F3810102295F
:1012C00045D00228C6F8608004D0FFF763FA0446D0
:1012D00038E034E0FFF75EFA074604E0FFF75AFA19
:1012E000C01B02282BD828688001F7D4206AB0F5EB
:1012F000803F05D16868A16820F400300843686029
:10130000D4E908010843696821F47411084368604E
:10131000C6F86090FFF73EFA044606E015E000BF0D
:10132000FFF738FA001B022809D828688001F7D592
:101330000BE000BFFFF72EFA001B022802D90320A2
:10134000BDE8F88F28688001F4D40020F8E7012078
:10135000F6E70000001002400000424280044242D2
:101360005C0000200070004070477047F0B5426E8E
:10137000120E93090B70C2F383034B7002F0030249
:101380008A70426E120CCA70B0F86420120A0A7198
:1013900090F864204A71826E4FF6FF73120E03EAD2
:1013A0000212CA80826ECB88C2F3074243EA12134C
:1013B000CB8002F00F020A72B0F86820C2F3072255
:1013C000D3094B72C2F380138B72C2F34013CB72FA
:1013D000C2F300130B7300264E73446C4FF4007776
:1013E00001236CB1012C43D0026840F2FF5191639C
:1013F000816B41F08051816380F834300120F0BD71
:101400009207120D0A6190F868200C6944EA820282
:101410000A61C26E0C69120E44EA92140C61C2F3A6
:10142000C2040C7502F007024A75C26EC2F307428D
:1014300054098C75C2F38204CC759207520F0A7658
:10144000B0F86C20C2F307240A7E42EAD4120A766E
:101450000A69521C42650D7EAD1CAA4042650D7A98
:1014600003FA05F585656D0A6A43C0E917271CE094
:1014700090F868209206920A0A61C26E0C69120EF8
:1014800044EA02220A61C26E0C69C2F307421443A5
:101490000C61B0F86C20C2F307240A69521C4FEAB1
:1014A00082224265C0E916720766C4F3801201F811
:1014B000192F4FEA84624FEA52624A7010F86C2F7B
:1014C0004C7844EAD2144C7002F07F028A70426871
:1014D0004FEA12624FEAD214CC70C2F341140C717D
:1014E000C2F382044C714FEA82724FEA12728A711F
:1014F00042688C79C2F3074244EA92148C71C2F3B9
:101500004014CC710E7202F001024A728288C2F35A
:1015100007224FEAD2148C72C2F38014CC72C2F349
:1015200040140C73C2F300144C73C2F381048C7327
:1015300002F00302CA7300794FEA500008744B743A
:101540004FF00000F0BD426C0A60826C4A60C26CD1
:101550008A60026DCA60426D0A61826D4A61C26D25
:101560008A61006EC8610020704770B50446B0F80B
:10157000500000250104206800F0F7FE18B1A16BAF
:101580000143A16304E00021206800F093FD0546BB
:10159000C5F3432070BD000070B504460068416B80
:1015A0004FF00105CA0540F23A3149D52A0282635B
:1015B0002068C26B8A43C263206B0007206B22D570
:1015C000800702D4206B800609D5206800F0FEFE5B
:1015D00028B1A16B0143A1632046FFF7C6FE216835
:1015E00040F2FF50886384F83450206BC00702D16A
:1015F000206B800703D5204600F001FA70BD20461D
:1016000000F0FEF970BD0006FCD5206B800609D500
:10161000206800F0DBFE28B1A16B0143A1632046E6
:10162000FFF7A3FE206BC007ECD1206B8007E9D445
:101630002068C16A21F00801C16284F83450DEE7F5
:10164000426B520410D54FF480418163266A002515
:1016500006EB8501206800F062FD6D1C082DF7D3B4
:10166000206A2030206270BD426B120410D54FF406
:1016700000418163A66A0025206800F03DFD46F820
:1016800025006D1C082DF7D3A06A2030A06270BD24
:10169000426B40F23A231A42F9D0426B920703D5CB
:1016A000A26B42F00202A263426B120703D5A26B47
:1016B00042F00802A263426B920603D5A26B42F08D
:1016C0002002A263426BD20603D5A26B42F0100245
:1016D000A263426B920503D5A26B42F00802A2639B
:1016E00040F2FF7282632068C26B8A43C263206B40
:1016F000000623D5206C58B115494163206CFEF7D4
:10170000A1FE0028C3D0206CBDE8704000F0E6BF09
:10171000E06B58B10F494163E06BFEF793FE002880
:10172000B5D0E06BBDE8704000F0B4BF0020A0630E
:1017300084F834502046FFF717FE70BD206B000779
:10174000FBD584F834502046FFF70FFE70BD000033
:10175000DD2600089526000870B5040004D094F832
:101760003400002510B105E0012070BD257720462A
:1017700000F038F8032084F83400204600F008F820
:10178000A5632563012084F83400002070BD0000AB
:10179000FEB500250446C3200095CDE901502B4637
:1017A0002A462946206800F091FC0D4E46F8A05FBD
:1017B000206800F09DFC012535600220FEF7DAFE6E
:1017C000204601F022F820B9204600F0ABFF0028A7
:1017D00005D084F83450A16B0143A1630120FEBD04
:1017E0000000304230B50068144985B0884223D1EA
:1017F0001348416941F4806141614069022400F469
:10180000806004904FF48850CDE9000403256946B8
:1018100003950C48FEF7BCFE0420CDE900046946A0
:1018200003950948FEF7B4FE002211463120FFF768
:101830003BF83120FFF72CF805B030BD00800140A7
:101840000010024000100140001401402DE9F04F4B
:1018500087B09A4617460E460446DDF840B0FEF7BC
:1018600099FF00903EB194F83400012807D0A06B96
:1018700040F000500FE0A06B40F000600BE04FF034
:101880000008C4F83880E06D07EB0A01814204D9F2
:10189000A06B40F00070A0637DE0032084F834006A
:1018A0002068C0F82C80606C012800D07F024FF4C3
:1018B0000071206800F06CFC40F2FF59012530B146
:1018C0002268C2F83890A16B0143A16361E04FF038
:1018D000FF3001904FEA4A200290902003900220AE
:1018E000CDE90408069501A9206800F0CDFBBAF106
:1018F000010F06D9022020633946206800F0BEFCA3
:1019000004E025633946206800F0D1FC0028D7D1D7
:1019100040F22A382068416B11EA080F22D1406B4F
:10192000000409D50027206800F0E6FB46F82700F0
:101930007F1C082FF7D32036BBF1000F05D0FEF730
:1019400029FF0099411A5945E4D32168C1F838901C
:10195000A06B40F00040A06384F83450032007B02F
:10196000BDE8F08F416BC90509D5BAF1010F06D961
:10197000616C032903D000F029FD0028A0D1206864
:10198000416B090709D5C0F83890A06B40F00800FA
:1019900028E084F834500120E1E7416B890705D540
:1019A000C0F83890A06B40F002001BE0416B890644
:1019B0001AD5C0F83890A06B40F0200012E000BFAC
:1019C00000F09AFB01C6BBF1000F05D0FEF7E2FE66
:1019D0000099411A594507D32168C1F83890A06B86
:1019E00040F00040A063D4E72068416B8902E7D44F
:1019F0002168C1F8389084F834500020AFE7704770
:101A0000704700002DE9F04F87B09A4616460D4604
:101A10000446FEF7BFFE06903DB194F8340001285D
:101A200007D0A06B40F000500DE0A06B40F00060CC
:101A300009E00020A063E26D06EB0A01914204D99F
:101A4000A06B40F00070A06390E0032184F8341094
:101A500021688146C862606C012800D076024FF48C
:101A60000071206800F094FB40F2FF58012730B16C
:101A70002268C2F83880A16B0143A16317E0BAF174
:101A8000010F06D9202020633146206800F0B8FC01
:101A900005E0102020633146206800F0CAFC0600F3
:101AA00008D02168C1F83880A06B3043A06384F867
:101AB00034705BE04FF0FF3000904FEA4A20019015
:101AC000902002904846CDE90407CDF80C90B94625
:101AD0006946206800F0D8FA40F21A3B22E0406BD9
:101AE00040040AD55FF0000705EB8701206800F08D
:101AF00016FB7F1C082FF7D32035109830B1FEF766
:101B000049FE0699411A109881420BD32168C1F809
:101B10003880A06B3043A06384F83490032007B072
:101B2000BDE8F08F2068416B11EA0B0FD7D0416BF5
:101B3000C9050FD5BAF1010F0CD9616C032909D081
:101B400000F044FC30B12268C2F83880A16B014338
:101B5000A16309E02068416B090709D5C0F8388006
:101B6000A06B40F0080014E084F834900120D6E720
:101B7000416B890705D5C0F83880A06B40F00200A2
:101B800007E0416BC0F83880C90604D5A06B40F06F
:101B90001000A063E8E784F834900020BFE74FF01E
:101BA000E0210428086903D020F004000861704790
:101BB00040F00400FAE7704710B5401EB0F1807F96
:101BC00001D3012010BD4FF0E02460610F216017A8
:101BD00000F098F80020A06107202061002010BDCF
:101BE00010B5FFF7E8FF10BDFEE7000010B504498F
:101BF0000448FEF704FC0249491E087010BD0000AD
:101C0000010000206452000870B52B4886B081693D
:101C100041F020018161816901F020010491816915
:101C200041F004018161816901F00401049181693D
:101C300041F010018161816901F010010491816915
:101C400041F00801816180691C4E00F00800049099
:101C500000224FF470413046FEF797FD0820002522
:101C6000CDE900050124694602941548FEF790FC71
:101C70003020CDE90005694602941248FEF788FC41
:101C8000CDE90045694630460294FEF781FC200309
:101C9000CDE900040220039069463046FEF778FC47
:101CA0004FF46040CDE90004694630460394FEF7E6
:101CB0006FFC06B070BD000000100240000C014037
:101CC000000801400010014010B5002208490948F1
:101CD00001F039F90849074801F037FB0749054881
:101CE00000F092FFBDE81040024801F07BBB00000D
:101CF00008000020980A0020400100203C0000203D
:101D0000FEE770470907090E002806DA00F00F0009
:101D100000F1E02080F8141D704700F1E02080F809
:101D2000001470472DE9FC5F4FF000080446ADF841
:101D30000480ADF8008048F60F7B4FF002094FF4A5
:101D4000806692E1BDF8041011F00F072BD030F837
:101D50002710ADF80010BDF80010090478D530F850
:101D6000272040F68F710A4020F8272004EB471502
:101D700095F8320205F50A750028206869D029789F
:101D800030F8212052047DD5B0F8503009EBC10164
:101D9000194406EB4101415AC1F309015FEA010A06
:101DA00071D0EA88D0E0BDF80410C9062AD40188B1
:101DB00001EA0B010180206804F12805B0F85020E9
:101DC0002B7809EBC301114406EB4101405AC0F3E3
:101DD00009006064E16B0844E06300212046FEF7DF
:101DE000B0FD94F824000028ABD0A8690028A8D141
:101DF00094F82400216840F08000A1F84C0084F899
:101E0000248032E1018804F50A75ADF80010BDF8B0
:101E1000001009051ED5B0F850302978062202EBD3
:101E2000C101194406EB4101405A04F22C41C0F3B0
:101E30000903EB61AA88206801F0FEFE2068018892
:101E400040F68F72114001802046FEF77CFF0CE1C6
:101E5000A0E055E0BDF800100904D2D5028840F694
:101E60008F710A4002802068B0F85030297806222D
:101E700002EBC101194406EB4101405A83059B0D59
:101E8000EB6101E051E063E008D0AA88696920684D
:101E900001F0D2FEE96968690844686100212046C2
:101EA000FEF756FD2068B0F85010891D06EB410181
:101EB000014428693E280CD9C0F34F12C00601D155
:101EC000521E92B24FF6FF7000EA822040F40040AA
:101ED00009E0C0F34F02C00701D0521C92B24FF686
:101EE000FF7000EA82200860216808884BF68F7234
:101EF000104080F4405048F2800210430880B4E063
:101F0000B0F850202B78062101EBC301114406EBF9
:101F10004101415AC1F309015FEA010A24D0AA88AC
:101F20005346696901F088FE1EE0B0F85020062390
:101F300003EBC101114406EB4101415AC1F3090110
:101F40005FEA010A04D02A895346696901F074FEE8
:101F50002978206830F8213048F68F72134048F213
:101F6000C002134320F82130E96901EB0A00E8615F
:101F7000696901EB0A026A61AB6913B128695045CE
:101F800004D929782046FEF7E3FC03E029782046AF
:101F9000FEF754FDBDF80000000666D5206804EB8E
:101FA000471530F8271001EA0B0120F8271095F8A3
:101FB000320028350028206812D0297830F82120F6
:101FC000B0F8503052061ED509EBC101194406EB9A
:101FD0004101405A83059B0DEB6124D0EA881EE045
:101FE000B0F850302A7809EBC201194406EB4101E0
:101FF000405A83059B0DEB6121D0AA88696920684E
:1020000001F031FE1BE0062202EBC101194406EB90
:102010004101405A83059B0DEB6104D02A8969690F
:10202000206801F020FE2978206830F8212048F649
:102030008F731A404CF280031A4320F82120206845
:10204000B0F850202B7809EBC301114406EB410195
:10205000405AC0F30900E86169690A186A61297881
:10206000AB69204663B1FEF72BFD2068B0F8441041
:10207000ADF8041009043FF565AE0020BDE8FC9FF3
:10208000FEF75FFCF1E770470A6842624A688262C5
:10209000D1E902231A43D1E904310B43C16A1A433F
:1020A00021F0F7011143C16200207047006800F081
:1020B0000300704708B5084414300090006808BD5C
:1020C0000148FFF769BA00009401002070B50DF1D6
:1020D000100C11439CE870002343194329434268C4
:1020E000314347F6FF639A430A434260002070BDC4
:1020F0000321016000207047D0F8800070470A6813
:102100008260D1E901231A43D1E903310B43C1684D
:102110001A436FF30B011143C16000207047096837
:10212000C0F880100020704710B586B004463720F4
:10213000CDE9001040200290002003904FF4806011
:10214000049069462046FFF7DAFF41F288323721D2
:10215000204600F087F906B010BD000010B5044617
:102160000A4886B001432920CDE9001040200290A2
:10217000002003904FF48060049069462046FFF7EA
:10218000BEFF204600F024FA06B010BD000010800B
:1021900010B586B004461020CDE900104020029012
:1021A000002003904FF48060049069462046FFF7BA
:1021B000A6FF41F288321021204600F053F906B004
:1021C00010BD000030B585B0002405460094019490
:1021D0004FF480600294CDE9034069462846FFF73A
:1021E0008EFF0B484FF4FA510068B0FBF1F041F25A
:1021F00088314843401E03D24FF0004005B030BD47
:10220000696B0906F6D540F2FF50A8632046F5E752
:102210005C00002070B585B004464FF4D570009086
:1022200008204026CDE901060025C001CDE9035074
:1022300069462046FFF763FF0F484FF4FA510068E4
:10224000B0FBF1F041F288314843401E02D24FF01A
:1022500000450DE0616B11F0450FF6D0606B400753
:1022600002D5A663042503E0606B400600D5A66393
:1022700005B0284670BD00005C00002010B586B097
:1022800004461220CDE90010402002900020039067
:102290004FF48060049069462046FFF730FF41F21A
:1022A00088321221204600F0DDF806B010BD10B5CE
:1022B00086B004461120CDE9001040200290002095
:1022C00003904FF48060049069462046FFF717FFA3
:1022D00041F288321121204600F0C4F806B010BD4A
:1022E00010B586B004460720CDE9002040200290BA
:1022F000002003904FF48060049069462046FFF769
:10230000FEFE41F288320721204600F0ABF806B00D
:1023100010BD10B586B0044600210220CDE90010A2
:10232000C020CDE902014FF4806004906946204648
:10233000FFF7E5FE204600F023F906B010BD10B50A
:1023400086B004460920CDE90010C020029000208C
:1023500003904FF48060049069462046FFF7CFFE5B
:10236000204600F00DF906B010BD10B586B0044649
:102370000D20CDE9001040200290002003904FF482
:102380008060049069462046FFF7B9FE41F288322A
:102390000D21204600F066F806B010BD30B585B0BE
:1023A0000C46054600210320CDE900104020CDE970
:1023B00002010001049069462846FFF7A0FE22466C
:1023C0000321284600F024F905B030BD10B586B0D1
:1023D000044600210C20CDE900104020CDE9020187
:1023E0000001049069462046FFF789FE034A0C214C
:1023F000204600F037F806B010BD000000E1F505FA
:1024000010B586B004461920CDE900104020029096
:10241000002003904FF48060049069462046FFF747
:102420006EFE41F288321921204600F01BF806B0FA
:1024300010BD10B586B004461820CDE9001040202C
:102440000290002003904FF480600490694620467B
:10245000FFF755FE41F288321821204600F002F8BD
:1024600006B010BD444B10B51B684FF4FA54B3FBD3
:10247000F4F353435B1E02D24FF0004010BD426B99
:1024800012F0450FF6D0426B520703D50421816349
:10249000084610BD426BD20702D00121816303E0E0
:1024A0000269D2B28A4201D0012010BD40F2FF5130
:1024B00081630021FFF7FEFD3049084201D1002071
:1024C00010BD002802DA4FF0007010BD410001D5A8
:1024D000402010BD810001D5802010BDC10002D573
:1024E0004FF4807010BD010102D54FF4007010BD93
:1024F000410102D54FF4806010BDC10102D54FF4F7
:10250000006010BD010202D54FF4805010BD4102A1
:1025100002D54FF4005010BD810202D54FF4804027
:1025200010BDC10202D54FF4004010BD410302D5D9
:102530004FF4003010BD810302D54FF4802010BD50
:10254000C10302D54FF4002010BD010402D54FF4A1
:10255000801010BD410402D54FF4001010BD81045D
:1025600002D54FF4800010BD000702D54FF40000E3
:1025700010BD4FF4803010BD5C00002008E0FFFD6E
:1025800012494FF4FA520968B1FBF2F141F2883274
:102590005143491E02D24FF000407047426B12F087
:1025A000450FF6D0416B490703D5042181630846E6
:1025B0007047416BC90703D001218163084670470A
:1025C00040F2FF5181630020704700005C00002052
:1025D0000E494FF4FA520968B1FBF2F141F2883228
:1025E0005143491E02D24FF000407047426B12F037
:1025F000450FF6D0416B490703D504218163084696
:10260000704740F2FF518163002070475C0000205A
:102610001F4B10B51B684FF4FA54B3FBF4F341F2AF
:10262000883463435B1E02D24FF0004010BD446B00
:1026300014F0450FF6D0436B5B0703D5042181638B
:10264000084610BD436BDB0702D00121816303E024
:102650000369DBB28B4201D0012010BD40F2FF5173
:1026600081630021FFF726FD10F4604F04D0410480
:1026700006D54FF4005010BD000C1080002010BD96
:10268000000402D54FF4805010BD4FF4803010BDCF
:102690005C00002070B5446A0025E06B00B1E56382
:1026A000206C002816D12046FEF75FFFA5630121AC
:1026B00084F83410062801D005280BD12068FFF7D4
:1026C00085FEA16B0843A063A06B0028204602D0C2
:1026D000FEF74AFE70BDFEF748FE70BD70B5446A55
:1026E0000025206C00B12564E06B002816D120463F
:1026F000FEF73BFFA563012184F83410062801D0C2
:1027000005280BD12068FFF761FEA16B0843A06389
:10271000A06B0028204602D0FEF726FE70BDFEF713
:1027200024FE70BD10B590B004460120ADF838000D
:102730002068FFF7BBFC002864D0606C032842D0FF
:102740002068FFF7E6FD00285AD100212068FFF736
:10275000B1FC606704212068FFF7ACFCA06708218A
:102760002068FFF7A7FCE0670C212068FFF7A2FCB8
:10277000C4F88000606C032825D00EA92068FFF7FC
:102780000DFE00283CD1606C03281CD0BDF8380039
:10279000206501042068FFF7D2FD002830D1002118
:1027A0002068FFF787FC606604212068FFF782FC41
:1027B000A06608212068FFF77DFCE0660C212068F8
:1027C000FFF778FC206704212068FFF773FC000DF9
:1027D000E06403A92046FEF7C9FDB4F850000023C9
:1027E00002042068FFF77CFD002809D104F11000E5
:1027F00007C88DE8070094E80F00FFF767FC00208A
:1028000010B010BD4FF08060FAE72DE9F8430025C5
:10281000044600950068FFF7D5FC00281AD120680F
:10282000FFF7F8FC4FF080784FF6FF76D8B14FF005
:102830008057A5640098411C0091B0421AD0002135
:102840002068FFF771FC20B900212068FFF786FCA3
:1028500010B13846BDE8F88300212068FFF72AFC54
:10286000C00FE7D01FE00127A7640098411C00912A
:10287000B04201D14046EDE700212068FFF754FC4B
:102880000028E7D14FF080412068FFF767FC00285F
:10289000E0D100212068FFF70DFCC10FE5D040001A
:1028A00001D5676400E065640020D3E710B5064CED
:1028B00001202070FDF7D0FC18B9207820F001002D
:1028C0002070207810BD00004C00002010B5124888
:1028D00088B014460078C00702D0032008B010BDAD
:1028E000B9B1012905D0022908D003290CD0042050
:1028F000F4E76846FDF79EFC069809E06846FDF798
:1029000099FC0798208004E06846FDF793FC07983F
:1029100020600020E2E700004C0000202DE9F0419B
:102920001E46174608460125094C0A4B32463946D1
:10293000FDF7A4FC28B109E0641E02D20120BDE825
:10294000F081FDF77DFC0028F6D100252846F6E74A
:10295000A086010000E1F50510B5064C01202070AD
:10296000FDF76EFC18B9207820F001002070207867
:1029700010BD00004C0000202DE9F0411E46174616
:1029800008460125094C0A4B32463946FDF786FCBC
:1029900028B109E0641E02D20120BDE8F081FDF7F4
:1029A0004FFC0028F6D100252846F6E7A086010056
:1029B00000E1F505704710B5FDF7F2FEBDE81040E7
:1029C000FFF70EB930B595B001210804CDE900102C
:1029D0000024029402250491CDE9075000010990DA
:1029E0006846FEF73FFB00B1FEE70F20CDE90A0580
:1029F0004FF48060CDE90C4001210AA80E94FEF747
:102A00004BFA00B1FEE710200F90800414900FA83D
:102A1000FEF7CCF900B1FEE7FEF7E8FA4FF47A7161
:102A2000B0FBF1F0FFF7C8F80420FFF7B8F8002278
:102A30001146501EFDF738FF15B030BD0D48016836
:102A400041F00101016041680B4A11404160016899
:102A50000A4A11400160016821F480210160416847
:102A600021F4FE0141604FF41F0181600449C0035D
:102A700008607047001002400000FFF8FFFFF6FEFC
:102A800008ED00E0D0F8180220B10021C0F81412BF
:102A9000084670470220704770B50546D0F81842C6
:102AA00000F010FBC4F80C02D5F8180248B1D5F8B4
:102AB0001C12D4F80402CA6804F503719047002080
:102AC00070BD022070BD70B504460025812100F064
:102AD0005FFA0121204600F05BFA8221204600F0D7
:102AE00057FAD4F8180250B1D4F81C0204F5067451
:102AF00040688047206800F07BFD00202060284669
:102B000070BD10B5D0E9864159B194F80002FF2894
:102B100007D08B6894F8012221469847FF2084F85B
:102B20000002002010BD00000A210180004870470B
:102B3000680000204321018000487047B800002051
:102B40004321018000487047740000204321018028
:102B500000487047FC0000202DE9F0410446007C4D
:102B600000254FF4007670B34023022281212046D5
:102B700000F00AFB402302220121204600F004FB62
:102B8000082303228221204600F0FEFA4FF407704A
:102B900000F030FDC4F81802F0B10746D4F81C026A
:102BA000006880470020C7F81402C7F81802207C8C
:102BB000D7F8042290B140230121204600F0F7FA13
:102BC0002846BDE8F081FFE73346022281212046F6
:102BD00000F0DAFA3346CEE70125F1E73346EBE7BA
:102BE00010B5D0F8181269B1027C002AD1F804227D
:102BF00005D04023012100F0DAFA002010BD4FF487
:102C00000073F7E7022010BD02460220002902D01F
:102C10000020C2F81C127047D0F81802C0F8041245
:102C200000207047D0F81802C0F81022C0F808122F
:102C30000020704770B50646D0F8185208780C4648
:102C400010F0600121D0202927D1E288AAB1000626
:102C5000607807D5D6F81C128B6829469847E28819
:102C6000294617E085F80002A07985F80102E2887C
:102C70002946304600F038F80FE0D6F81C1260788C
:102C800000228B682146984707E060780A2804D123
:102C900003490122304600F041F8002070BD0000D9
:102CA0006400002010B5D0F814225268904700202C
:102CB00010BD134610B50A46002100F078FA002036
:102CC00010BD134610B50A46002100F01AFB002083
:102CD00010BD10B50446802100F0EAFA2046BDE898
:102CE0001040002100F0E4BA10B50323C0F8082119
:102CF000C0F8F431C0F80C2113460A46002100F058
:102D000056FA002010BD10B505210023C0F8F411BB
:102D10001A46194600F04BFA002010BD10B50223E8
:102D20008261C0F8F431C26113460A46002100F006
:102D3000E8FA002010BD10B504210023C0F8F411FA
:102D40001A46194600F0DDFA002010BD10B50A46FB
:102D5000024903A000F0D4F8004810BD98080020F4
:102D600043444320436F6E66696700001220088069
:102D7000004870472800002010B50A46024903A009
:102D800000F0BEF8004810BD9808002043444320DE
:102D9000496E7465726661636500000004200880F6
:102DA000004870472400002010B50A46024903A0DD
:102DB00000F0A6F8004810BD9808002053544D6953
:102DC00063726F656C656374726F6E696373000024
:102DD00010B50A46024903A000F092F8004810BD61
:102DE0009808002053544D3332205669727475612F
:102DF0006C20436F6D506F727400000010B50A466E
:102E0000024903A000F07CF8004810BD980800209B
:102E10003030303030303030303031410000000060
:102E2000F8B5044648880D46010A08294BD2DFE868
:102E300001F04A0409174A4A4048D4F81012207C8D
:102E40000A6832E0207C02260028D4F8140205D05B
:102E5000C16A684688470146467041E0816AF8E7E2
:102E6000C0B206282FD2DFE800F003080D12171CAD
:102E7000D4F81012207C4A6817E0D4F81012207C95
:102E80008A6812E0D4F81012207CCA680DE0D4F8E9
:102E90001012207C0A6908E0D4F81012207C4A69DC
:102EA00003E0D4F81012207C8A69694690470146F5
:102EB00016E0207C38B9D4F81402416B6846884784
:102EC000F5E7207C20B129462046FFF702FFF8BD38
:102ED000D4F81402016B6846884701460720487001
:102EE000BDF800000028F2D0EA88002AEFD0824224
:102EF00000D90246ADF800202046FFF70FFFF8BDCD
:102F000070B5002300281DD00446002502E06D1C8A
:102F1000EDB2641C2678002EF9D1022404EB45049E
:102F20001480CC545B1C0322CA5400245B1C06E0B2
:102F3000CA545B1CDAB28C54521CD3B2401C0278C7
:102F4000002AF5D170BD10B580B1D0F8143213B19C
:102F50000023C0F8143209B1C0F81012012180F822
:102F6000FC11027000F0B2F8002010BD022010BD6C
:102F700010B50024D0F82002FDF712FD30B1012871
:102F800001D0022801D0022400E00124204610BD17
:102F900010B50024D0F82002FDF7E2FC30B1012882
:102FA00001D0022801D0022400E00124204610BDF7
:102FB0002DE9F0411746044641B1D4F814024269A4
:102FC0008AB394F8FC01032842D043E0D4F8F4110A
:102FD000002504F11400022933D1D0E902639E4296
:102FE00007D9F31A83609AB239462046FFF769FE83
:102FF00012E04068B0FBF3F103FB1101A1B9984264
:1030000012D3D4F8F81188420ED20022114620467D
:10301000FFF757FEC4F8F85100231A461946204618
:1030200000F0C5F80DE012E0D4F81402C16829B12F
:1030300094F8FC01032801D1204688472046FFF779
:1030400062FE94F80002012804D184F8005201E0E5
:10305000204690470020BDE8F08170B51546044633
:1030600041B1D4F8140282693AB394F8FC01032800
:1030700024D025E0D4F8F41104F5827003291FD17F
:10308000D0E902218A420BD9531A83600846834251
:1030900000D303469AB229462046FFF70AFE0FE006
:1030A000D4F81402016929B194F8FC01032801D174
:1030B000204688472046FFF73EFE01E02046904725
:1030C000002070BDD0F82002FDF78EBC10B520495D
:1030D0000446C1F85C04C0F820121E4808600820AD
:1030E0004860022088600320C86000208861C861B1
:1030F00008620846FDF780FD20B14FF48D7116A0DF
:1031000000F0C5FD0022D4F820021823114604F572
:103110000874FDF7FBFB5823002280212068FDF78F
:10312000F5FBC023002281212068FDF7EFFB4FF45F
:103130008873002201212068FDF7E8FB4FF48073BB
:10314000002282212068FDF7E1FB002010BD000075
:1031500038040020005C00402E2E2F5372632F7520
:103160007362645F636F6E662E6300000A06D0F8B8
:10317000200201F07F0100EB411002D590F82A00F7
:10318000704790F82A02704770B51D461346002418
:10319000D0F820022A46FDF72FFC30B1012801D0DB
:1031A000022801D0022400E00124204670BD10B5A1
:1031B0000024D0F82002FDF741FC30B1012801D0F5
:1031C000022801D0022400E00124204610BD70B581
:1031D0000022044640231146FFF7D6FF40252B4628
:1031E000002280212046C4F81051FFF7CDFF0120B6
:1031F000256284F8FC01D4F8180228B1D4F814022E
:103200002179426820469047002070BD90F8FD115A
:1032100080F8FC110020704710B590F8FC110329CC
:1032200004D1D0F81412C96901B18847002010BD3B
:1032300001740020704710B50024D0F82002FDF77B
:103240006EFD30B1012801D0022801D0022400E037
:103250000124204610BD70B5044600F502700546F5
:1032600000F05FF80120C4F8F401B4F80E02C4F8CD
:10327000F80194F8080210F01F010AD001290DD0BE
:10328000022910D000F08001204600F011F8002043
:1032900070BD2946204600F0AAF8F8E729462046E6
:1032A00000F08CF9F3E72946204600F019F9EEE723
:1032B00010B50024D0F82002FDF7D7FB30B101286B
:1032C00001D0022801D0022400E00124204610BDD4
:1032D00010B50024D0F82002FDF73CFD30B10128E4
:1032E00001D0022801D0022400E00124204610BDB4
:1032F00090F8FC1180F8FD11042180F8FC110020E9
:10330000704710B50024D0F82002FDF7D9FB30B18A
:10331000012801D0022801D0022400E00124204627
:1033200010BD0A7802704A7842708A78CB7802EB36
:10333000032242800A794B7902EB032282808A7948
:10334000C97902EB0121C18070470246002011B10A
:10335000C2F8141270470220704710B5D0F814223A
:1033600002241AB11268904700B90024204610BD0B
:1033700070B50E461A4D897804462970012928D85F
:1033800094F8FC01022802D0032822D105E099B16B
:103390000320616084F8FC0109E091B16068884213
:1033A0000AD0C1B22046FFF77DFC29786160204633
:1033B000FFF7D3FF02280CD02046BDE87040FFF78E
:1033C000BABC022084F8FC0120466160FFF76AFC69
:1033D000F2E731462046BDE87040FFF77ABC0000B6
:1033E0006000002010B5FFF773FF002010BD2DE92D
:1033F000F04100264B78012532460A2B43D2DFE804
:1034000003F03C584251420805422A27FFF708FDC5
:1034100063E004468888C8B9C888B8B9887800F0DD
:103420007F0794F8FC01032810D084F8FE71394618
:103430002046FFF700FF2046FFF77DFC1FB102206A
:1034400084F8FC0149E084F8FC5146E020461AE08B
:10345000FFF78EFF41E0CB88012B14D190F8FC31AF
:10346000022B02D0032B0ED104E08260012200F176
:10347000080114E00122011D11E090F8FC21022A4C
:1034800004D0032A02D0FFF724FC26E0C560D0F860
:10349000041209B10321C160022200F10C01FFF7FF
:1034A0003DFC1AE004464888012816D1C4F80452AD
:1034B0000BE0044690F8FC01022801D00328C5D196
:1034C0004888012809D1C4F80422D4F8140282687B
:1034D000204690472046FFF72EFC3046BDE8F0819D
:1034E00070B50D460446287800260979C0F34110CE
:1034F000012806D06878A0B301281FD003283FD147
:1035000007E0D4F81402294682682046904700203C
:1035100070BD94F8FC01022817D003282CD16888CC
:1035200028B921B1802902D02046FFF7C1FED4F886
:103530001402294682682046904713E094F8FC0163
:10354000022802D0032817D103E0C9B180291BD17A
:1035500016E06888A0B9480604D02046FFF708FDA9
:10356000E5E703E02046FFF7E6FB09E094F8FC01FD
:10357000022807D003280BD029462046FFF7A9FBD5
:10358000304670BD4806FBD02046FFF791FEF7E7B6
:10359000080601F07F0004EB001501D5143501E0A9
:1035A00005F582752046FFF7E1FD00B10120286096
:1035B000022229462046FFF7B1FBE1E770B5054638
:1035C00090F8FC010C4603280DD1207901280AD877
:1035D000D5F81402826828469047E08830B928461A
:1035E000FFF7A9FB02E02846FFF773FB002070BD40
:1035F0007047000000487047180200202DE9F0478E
:10360000CC780A7848F68F1334B1012C6DD0022C97
:1036100008D0032C13D10BE030F822401C4044F4B6
:1036200000730AE030F822401C4020F8224006E0F7
:1036300030F822401C4044F4C06320F822300C785B
:1036400030F8245048F68F72154048F280031D432D
:10365000254320F824508D7A48F6BF7904274BF68D
:103660008F7A48F2C0044CF28006EDB30D7830F842
:1036700025C048F280180CEA020C4CEA080C20F82D
:1036800025C0CD88B0F850C025F0010591F8008024
:103690000CEBC80C00EB4C0CCCF800540D89B0F8C6
:1036A00050C025F0010591F8008007EBC80767447A
:1036B00000EB4707C7F800544D78002D0D7830F81F
:1036C00025704FEA47477DD0002F05DA30F8257086
:1036D0001740374320F825700D7830F825707F06A5
:1036E00008D530F8257001E024E01DE0174027439D
:1036F00020F825700C7830F824501540354320F818
:1037000024500C7830F8242002EA09021A4320F8E9
:1037100024200A7830F8221001EA0A01194320F81F
:1037200022100020BDE8F08730F822401C4044F40D
:10373000806382E74D78F5B18D88B0F8506025F050
:1037400001050F7806EBC70600EB4606C6F80054E5
:103750000D7830F82560760605D530F825601640DE
:10376000264320F825600A7830F8221001EA090182
:1037700081F02001D2E78C88B0F8505024F0010489
:1037800091F800C007EBCC073D4400EB4505C5F8B8
:103790000044B0F850400D78062707EBC5052C44CF
:1037A00000EB44070C694FF6FF7C07F580673E2C61
:1037B0000CD9C4F34F15E40601D16D1EADB20CEA6D
:1037C000852400E01EE044F4004407E0C4F34F0504
:1037D000E40701D06D1CADB20CEA85243C600C7886
:1037E00030F824506D0405D530F824501540354389
:1037F00020F824500A7830F8221001EA0A0181F4F6
:1038000040518BE7002F05DA30F825701740374319
:1038100020F825700D7830F82560760605D530F84B
:1038200025601640264320F825600E7830F8265093
:103830001540254320F826500C7830F8242002EA61
:103840000A0282F440521A4320F824200A7830F801
:10385000221001EA090161E7002070472DE9F043D9
:1038600091F80A8091F801C00A7848F6BF774BF6C4
:103870008F7948F2800348F2C0054CF2800648F682
:103880008F74B8F1000F2ED0BCF1000F30F822C0B9
:103890004FEA4C4C4ED0BCF1000F07DA30F822C092
:1038A0000CEA040C4CEA060C20F822C00A7830F826
:1038B00022C05FEA4C6C07D530F822C00CEA040C39
:1038C0004CEA050C20F822C00A7830F82250254036
:1038D000354320F822500C7830F824203A401A431F
:1038E00020F824201BE0BCF1000F0ED030F822603D
:1038F000760605D530F8226026402E4320F8226057
:103900000A7830F8221039400EE030F822506D0469
:1039100005D530F822502540354320F822500A784A
:1039200030F8221001EA0901194320F82210002082
:10393000BDE8F083BCF1000F07DA30F822C00CEAD2
:10394000040C4CEA060C20F822C00A7830F82260F9
:10395000760605D530F8226026402E4320F82260F6
:103960000E7830F8262022402A4320F826200C78B2
:1039700030F8242002EA09021A4320F82420BFE785
:10398000002070470020704700B50121A0F84010CA
:103990000021A0F84010A0F84410A0F8501000F04A
:1039A0003AF9002000BD30F8401F21F43D4101806C
:1039B000002070470020704730B54D780A78002D00
:1039C00048F68F7430F8225048F2800312D06D060A
:1039D00007D530F82250254048F2C004254320F88E
:1039E00022500A7830F8221048F6BF74214081F046
:1039F000300111E06D0407D530F8225025404CF21B
:103A00008004254320F822500A7830F822104BF623
:103A10008F74214081F44051194320F82210002076
:103A200030BD10B50A7848F2800352B149780029B8
:103A300030F8221010D048F6BF74214081F01001F8
:103A40000FE001884BF6BF72114081F4805181F084
:103A500010011943018007E04BF68F74214081F477
:103A60008051194320F82210002010BD2DE9F041AB
:103A70000D460646896995F801C00023AA7A0227F7
:103A800028690C4648F28008BCF1010F05D081423C
:103A900052D90446081AA8614FE0814203D904466E
:103AA000081AA86100E0AB617AB1287836F82010D6
:103AB0004906B6F8501007EBC000084406EB40007A
:103AC000C0F8004412D52A8911E0A3B2AA88304672
:103AD000696900F0C8F8B6F85000297807EBC10111
:103AE000084406EB4000C0F800441CE0EA88A3B29A
:103AF0003046696900F0B7F8687848F68F7110B100
:103B0000012807D00FE0287836F820200A4048F234
:103B1000C00105E0287836F820200A404CF28001E8
:103B20000A4326F82020297836F8210048F6BF728B
:103B3000104080F0300067E0AB6106234FF6FF7065
:103B40001AB1BCF1000F1BD056E0B6F850102A781D
:103B50003E2C03EBC202114406EB410202F58062E7
:103B600039D9C4F34F11E30632D000BF00EA8120F7
:103B700040F4004002E000BF00EA812010603BE01A
:103B8000B6F850102A783E2C07EBC202114406EB1F
:103B9000410202F580620BD9C4F34F115FEAC46C95
:103BA00001D1491E89B200EA812141F4004108E0B7
:103BB000C4F34F015FEAC47C01D0491C89B200EA1A
:103BC0008121116069780029BFD001290AD013E052
:103BD000491E89B2CAE7C4F34F01E307CCD0491CA0
:103BE00089B2C9E7B6F85000297807EBC10108444B
:103BF00006EB4000C0F80044297836F821004BF667
:103C00008F72104080F4405040EA080026F82100EE
:103C10000020BDE8F08130F8401F41F43F410180B1
:103C2000002070470148FCF760BF00003804002006
:103C3000B0F84400704700005B1C00EB42005B08DA
:103C400000F5806006D000BF30F8042B21F8022B6D
:103C50005B1EF9D170470020704711B98021A0F890
:103C60004C100020704710B55B1C00EB42005B0855
:103C700000F5806009D011F8012B5B1E11F8014B93
:103C800042EA042220F8042BF5D110BDFEE7FEE73E
:103C90000FB4084B10B504A902AA039800F01CF851
:103CA000044602A9002000F0C1F8204610BC5DF8CF
:103CB00014FB00002D3E000802E008C8121F08C1D6
:103CC000002AFAD170477047002001E001C1121F9D
:103CD000002AFBD1704700002DE9FF4F89B09B46B9
:103CE0000446002506E025280BD05A460B9990473C
:103CF000641C6D1C20780028F5D10DB02846BDE865
:103D0000F08F0027B8460122474900E0074314F826
:103D1000013F203B02FA03F00842F7D120782E2819
:103D200019D114F8010F47F004072A280ED06FF0BC
:103D30002F022078A0F1300109290CD808EB880166
:103D400002EB410100EB0108641CF2E70A98641CD5
:103D500050F8048B0A9020780028CED0642808D030
:103D6000692806D075281ED05A460B9990476D1CBD
:103D700058E00A994FF00A0901C90A91002802DAAD
:103D800040422D2102E0390504D52B218DF8201069
:103D9000012103E0F90704D02021F7E78A4608AEA5
:103DA0000DE00021FAE70A994FF00A0901C90A91CA
:103DB000F7E74946FCF7EAF9303106F8011D00281B
:103DC000F7D1ADEB060000F12009780701D44FF0E0
:103DD0000108C84502DDA8EB090000E0002080468C
:103DE000002706E008A85A46C05D0B9990476D1C55
:103DF0007F1C5745F6DB04E030205A460B9990476C
:103E00006D1CB8F10001A8F10108F5DC05E016F819
:103E1000010B5A460B9990476D1CB9F10001A9F1AD
:103E20000109F4DC641C65E7092801000A68531CD9
:103E30000B6010707047000010B50446002084F835
:103E40000402401EC4F82C02204601F06BF808B1B1
:103E5000032010BDB4F8FE01A0F52A41553901D068
:103E6000022010BD94F83600B4F8371040EA012162
:103E70000848B0EB012F08D094F85210B4F8532042
:103E800041EA0221B0EB012F01D1002010BD012039
:103E900010BD000000464154F0B50022184B1446F6
:103EA00002EB420653F8265085B1D0F80072BD42AD
:103EB0000DD103EB8605D0F808626F68B74206D1D2
:103EC0002D89B0F80662B54204D000E00124521CEE
:103ED000022AE5D3022A01D079B904E05CB90229AB
:103EE00009D01220F0BD02EB420003EB80004089B4
:103EF000B0F5807F01D00020F0BD1020F0BD0000A3
:103F0000BC1C002030B50021064A0C4601EB4103E1
:103F100052F82350854201D142F82340491C02291E
:103F2000F4D330BDBC1C0020D0F82422D0F800020D
:103F3000490A90F80202B1FBF0F0121D02CA19B151
:103F4000884203D3401AF8E70020704711680844FC
:103F50007047D0F81422891E921E8A4201D8002090
:103F60007047D0F8282290F8020201FB0020704729
:103F700010B5FCF771F9012205A1064800F0F8FA26
:103F800005490028887001D100F008F810BD000034
:103F900000000000E01C00207801002030A1334820
:103FA000FFF776FE314D324F324C4FF48056643D70
:103FB0001420FCF7DFFA31463846FCF7E2FB00F04C
:103FC00055FF2178884202D000F050FF20702278FF
:103FD000EAB329A12548FFF75BFE24490122A1F598
:103FE000247000F0F3FAA07078BB01F033F824E0FD
:103FF0001E49204B64390C33E278A1F50B7000F0B8
:10400000B5FBA070288840BAE08001F078F8002065
:1040100006E0081A28448078FCF766F96078401CAE
:104020006070E178C0B28842F3D9FCF7B1F9E0885A
:10403000FCF7A0FA2089401E208100F017FF2178AC
:10404000884202D120890028D2D10E4800E002E047
:1040500000F078FAACE701F052F8FCF799F9A7E71D
:10406000656666312E62696E00000000A0210020A6
:10407000000C01407801002065666625642E6269A7
:104080006E000000101F00202DE9F0410F000546D2
:1040900006D000F019FE02280BD20120BDE8F08105
:1040A000D5F80C621EB1D5F81402B04208D801262A
:1040B00006E0411CF2D0D5F814128142EED83E46FB
:1040C0003446D5F81402641CA04202D80224022E01
:1040D0000AD32146284600F0F7FD38B1411CDDD057
:1040E0000128DBD0B442ECD10020D7E76FF070425A
:1040F0002146284600F031FF30B957B122463946F3
:10410000284600F02AFF20B1012812D001242046C1
:10411000C4E7C5F80C42D5F81002411CF7D0401E88
:10412000C5F8100295F8050240F0010085F8050277
:10413000EDE74FF0FF34EAE72DE9F04789460C68D8
:1041400000E0641C21782F29FBD05C29F9D0D0F83D
:1041500018520B222021284600F0DDFE00200146E7
:104160000B460826E25C5B1C202A35D92F2A33D067
:104170005C2A31D02E2A01D0B04208D3082E38D183
:104180002E2A36D108200B268906090EEAE7802A56
:1041900005D3244F41F003013A4412F8802C22A7A2
:1041A00000E07F1C97F800C0BCF1000F02D09445DE
:1041B000F7D11EE0A2F14107192F02D841F0020108
:1041C00007E0A2F16107192F03D8203A41F001015D
:1041D000D2B22A54401CC5E71C44C9F80040202A2A
:1041E00001D8042200E0002218B12878E52803D085
:1041F00004E00620BDE8F08705202870082E01D1D4
:104200008806010E01F00300012801D142F01002DE
:10421000C1F38100012801D142F00802EA720020B6
:10422000E8E7000078520008222A2B2C3A3B3C3D5C
:104230003E3F5B5D7C7F0000401E022815D20C4B88
:1042400000EB400203EB82014889B0F5807F05D086
:1042500008B1401E80B2488110B104E00020FAE7A6
:10426000002043F822000020704702207047000021
:10427000BC1C00202DE9F041B0F806620446761C13
:1042800030040F46000C37D0D4F8100298B3310731
:1042900073D1401CC4F81002D4F80C12D4F80002F8
:1042A00031B190F80222521E12EA161F05D064E0C6
:1042B000B0F80802B0421FD95FE000F005FD0546E6
:1042C00001281ED9681C3AD0D4F80002D0F8141284
:1042D000A94249D87FB1D4F80C12FFF7D5FE0500EA
:1042E0000DD0012D0DD0681C29D0D4F8000200F0AB
:1042F00073FF20BB07E0FFE70420BDE8F081072043
:10430000FBE70220F9E74FF400720021D4F8000225
:1043100000F001FE2946D4F80002FFF71AFED4F897
:10432000001200274FF00108C1F82C0211E000BF75
:1043300080F80482D4F8000200F04EFF08B101209A
:10434000DBE7D4F80002D0F82C12491C7F1CC0F81F
:104350002C12D4F8000290F80212B942E8D8D0F832
:104360002C12C91BC0F82C12C4F80C522946D4F8E0
:104370000002FFF7EEFDC4F81002A4F80662D4F8BC
:10438000000206F00F0100EB4110C4F814020020F7
:10439000B3E770B50446002100F036F810E0D4F819
:1043A0001012D4F8000200F0BDFD58B9D4F8140280
:1043B0000078E52809D040B101212046FFF75AFFD7
:1043C0000028ECD0042809D009E0D4F81012D4F861
:1043D000000200F0A7FD050003D013E0072005460A
:1043E00010E0D4F814022022002104F5007400F03B
:1043F00092FDD4E905010B2200F084FD2168012023
:1044000081F80402284670BD70B5A0F80612D0F8F5
:1044100008320D460446012B40D0D4F80002D0F8F3
:10442000141299423AD933B990F80012032906D1EF
:10443000D0F824321BB190F80202060114E0B0F863
:104440000812A9422AD9D0F8240214E000F03CFC5A
:104450000346401C20D0022B20D3D4F80002D0F811
:10446000140298421AD9AD1BD4F80002B54219467D
:10447000ECD2FFF76EFDC4F80C3278B100EB1510EA
:10448000C4F81002D4F8000205F00F0100EB41104F
:10449000C4F81402002070BD012070BD022070BD60
:1044A000084910B50B5C002253B901220A540A18BE
:1044B00001EB8000127A4068016810468847024686
:1044C000104610BDD41C002030B4054C231804EB5A
:1044D00080001B7A406804691846A44630BC6047D7
:1044E000D41C002030B4054D2C1805EB8000247A34
:1044F000406885682046AC4630BC6047D41C00202C
:10450000044A111802EB8000097A406842680846A4
:1045100010470000D41C002030B4054D2C1805EBCA
:104520008000247A4068C5682046AC4630BC6047AD
:10453000D41C0020024B187059805A70704700003C
:104540008E01002010B5044600F0D6F900280DD1E8
:10455000204600F071FE002808D1D4F82802FFF7A9
:104560006BFE002802D10021C4F8001210BD00002B
:104570002DE9F74181B0904602980090684600F01E
:1045800006FC040003D50B2004B0BDE8F0810E4EFC
:10459000002756F8245025B12846FFF7B3FC85F8CC
:1045A00000720198002801D080F8007246F82400BB
:1045B00002D0B8F1010F01D00020E5E7002202A9E6
:1045C00001A800F0F5F9DFE7540000202DE9F747D6
:1045D000ADF50B7D06000ED04FF0000802F01F076E
:1045E00027F001028CA980A8C6F8008200F0E0F94B
:1045F000040005D0B4E009200DF50E7DBDE8F0877C
:1046000088A8869068468C9900F0FEFA859D040083
:104610000BD11DB1780803D0012102E0062404E08B
:1046200000216846FFF738FC044617F01C0F5FD0E6
:104630004FF0010AD4B1042C13D100204A4902E002
:10464000401C022805D200EB400251F82220002A2B
:10465000F6D1022804D06846FFF79BFE044600E02E
:104660001224859D47F0080754B179E0E87A10F0EC
:10467000110F01D0072473E0780701D508246FE0FB
:10468000380743D500F081FBA873010AE973010CD8
:104690002974000E687485F80B8085F81C8085F8F5
:1046A0001D8085F81E8085F81F802946809800F0BF
:1046B00003FC81460021284600F02BFD8099B9F1CA
:1046C000000F81F804A21FD080984946D0F82CA290
:1046D00000F0DEFC040043D18099A9F10100C1F88B
:1046E0000C025146809800F01DFC04000AD037E00F
:1046F000B4BBE87AC10601D5042431E0B90701D57D
:10470000C007B7D1380701D547F020078098D0F807
:104710002C02C6E98705780801D0012100E00021BC
:10472000684600F053FBC6F82802D8B186F8067236
:1047300086F807824746294606F50076809800F0FD
:10474000BBFB3061287FD5F81D1040EA0120C6E987
:104750000270B761776280983060B0F80602B0806E
:10476000204649E70224FBE7BC1C00202DE9F84F56
:1047700088460021994615460446196000F05CFD04
:10478000002812D194F8070200280ED194F80602EE
:10479000C00709D0D4E98201081A01274FF0020AA4
:1047A000854200D90546A2E00720BDE8F88F00BF8A
:1047B000D4F80812C8057CD1D4F8000290F802227F
:1047C000521E02EA512212F0FF0614D131B1D4F880
:1047D000242232B12046FFF7A7FB06E0D4F81002EE
:1047E00003E0D4F8141200F06FFA022823D3411C1E
:1047F0005BD0C4F81402D4F81412D4F80002FFF706
:10480000A8FBC0B130440090680A5FEA000B2AD0D0
:10481000D4F8001206EB0B0291F80202824201D991
:10482000A0EB060B91F801025B464146009AFFF7A8
:1048300059FED0BB03E084F807A20220B5E794F844
:10484000060240060CD5D4F818120098081A5845EC
:1048500006D208EB40204FF40072214600F052FBD4
:104860004FEA4B2637E0D4F818220098824221D034
:1048700094F8060240060ED5D4F800020123214622
:1048800090F80102FFF748FE78B994F8060220F08C
:10489000400084F80602D4F800020123214690F873
:1048A0000102009AFFF71EFE20B184F80772012072
:1048B0007BE702E00098C4F81802B4F80802C0F3DD
:1048C0000800C0F50076AE4200D92E4601193246E6
:1048D000404600F017FBD4F80802B0443044C4F856
:1048E0000802D9F800008119AD1BC9F80010002D8D
:1048F0007FF45EAF002058E770B5044600F09CFCE2
:10490000002811D194F806128A060DD5480612D552
:10491000D4F800020123214690F80102D4F81822AD
:10492000FFF7FAFD08B1012070BD94F8060220F0EF
:10493000400084F80602D4F81C12D4F8000200F0FB
:10494000F1FA0028F0D1D4F82052E87A40F02000A3
:10495000E87294F80C022877B4F80C02000A687721
:10496000D4F80C02000CA877D4F80C02000EE877FB
:10497000D4F81012284604F5007400F0CAFB00F0C9
:1049800004FAA875010AE975010C2976000E68760B
:104990000020A874E874A07920F02000A07121689C
:1049A000012081F804022068BDE8704000F0B9BB26
:1049B0002DE9FF474FF000090746C0F80090164662
:1049C000084600F0E4F9050003D50B2004B0BDE86B
:1049D000F0878A4850F82540A4B13C6094F8000262
:1049E00028B194F80102FFF78BFDC1070CD084F8C1
:1049F0000092E8B284F80102FFF752FDC10708D027
:104A00000320E3E70C20E1E70EB1400704D40020C7
:104A1000DCE71EB1400701D50A20D7E7002529466B
:104A20002046FFF709FA012823D100204FEA0D079D
:104A300004EB001191F8C22101F5DF712AB10A7A65
:104A4000D1F8091042EA012100E0002147F82010C6
:104A5000401C0428ECD3002657F826502DB12946D7
:104A60002046FFF7E9F908B909E00220761C042E78
:104A7000F2D3032801D0E0BB01E00120A6E7B4F89F
:104A80000B00B0F5007F60D1E28A2AB994F82400C7
:104A9000D4F8251040EA0122C4F81822217C84F8B9
:104AA0000312012901D002294FD1607B514384F8C0
:104AB0000202F0B1431E184247D1B4F81130A4F8F5
:104AC00008321E0741D1B4F813602EB994F8206063
:104AD000D4F8217046EA0726B4F80EC0BCF1000FE6
:104AE00033D00CEB010707EB1317BE422DD3F61B97
:104AF00000E02AE0B6FBF0F038B3012640F6F67885
:104B0000404500D302264FF6F678404500D30326F1
:104B1000801C2F44C4F82872AC44C4F81402C4E9C1
:104B2000875C032E13D083B16144C4F82412022E93
:104B300019D000F0010100EB400001EB500000BF74
:104B400000F2FF10B2EB502F0FD20D203EE7002BEA
:104B5000FBD194F82C10D4F82D30800041EA0321C9
:104B6000C4F82412ECE74000EAE74FF0FF30C4F845
:104B70001002C4F80C02802084F80502032E30D104
:104B8000208E01282DD12046691C00F0CBF940BBB6
:104B900084F80592B4F8FE01A0F52A41553920D1D8
:104BA0002078D4F8011040EA01201549884218D134
:104BB00094F8E401D4F8E51140EA01201149884253
:104BC0000FD194F8E801D4F8E91140EA0120C4F8C3
:104BD000100294F8EC01D4F8ED1140EA0120C4F879
:104BE0000C02064984F80062091F0888401C0880EE
:104BF000A4F806022046FFF785F908E754000020D4
:104C0000525261417272416173B50446019908784C
:104C10002F2801D05C2801D1491C01910025C4F83E
:104C2000085201980078202806D200212046FFF77C
:104C3000EBFBC4F814527CBD01A92046FFF77CFAB7
:104C40000028F8D100212046FFF7DEFB20BB00BF83
:104C5000D4F81012D4F8000200F064F9E0B9D4F8E6
:104C600014120A7832B1CA7A12070FD40A23D4F880
:104C7000182203E004200FE05B1E06D311F8015B4D
:104C800012F8016BAD1BF7D000E02DB100212046DA
:104C9000FFF7F0FA0028DBD0D4F81812C97A28B14F
:104CA0000428C8D14907C6D405207CBD4907FCD4D7
:104CB000D4F81412C87AC006F6D5D4F8000200F071
:104CC000FBF8C4F80802B7E72DE9F0410D460446A9
:104CD00002290DD3D4F81402A84209D994F800028D
:104CE0004FF0FF36012807D002282AD0032836D0FB
:104CF00001263046BDE8F081D4F8200205EB5507C7
:104D000000EB5721204600F00DF90028F1D1C7F340
:104D100008007F1C14F80080D4F8200200EB572113
:104D2000204600F0FFF80028E3D1C7F30800215C1B
:104D300048EA0120E90701D00609DAE7C0F30B06CB
:104D4000D7E7D4F8200200EB1521204600F0EAF85E
:104D50000028CED1E8B204EB40000688C9E7D4F8B9
:104D6000200200EBD511204600F0DCF80028C0D16D
:104D700040F2FF1000EA850020440178D0F80100DD
:104D800041EA002020F07046B3E70020704710B5DC
:104D900004464FF0FF302268002A13D0114600E08D
:104DA000491C0B78212B0ED33A2BF9D112F8013B79
:104DB000303B0A2B06D28A4204D1002B02D1491C77
:104DC0001846216010BD002010BD0000F0B503465C
:104DD000254AD3F80042002000EB400552F8256038
:104DE000A6420BD102EB8505D3F808626F68B74283
:104DF00004D12D89B3F80662B54202D0401C0228C6
:104E0000EAD302281AD1002002E0401C022805D271
:104E100000EB400552F82550002DF6D1022815D0A0
:104E200000EB400542F8254002EB8504D3F8086208
:104E30006660B3F80632238100236381002900EB0A
:104E4000400102EB8101498902D019B10020F0BD77
:104E5000491C01E04FF4807100EB400302EB830238
:104E6000401C5181F0BD0000BC1C002070B5002426
:104E700008210E48FBF780FC00B901240C4D1021DD
:104E80002846FBF779FC08B944F0020420212846A3
:104E9000FBF772FC08B944F0040401210548FBF754
:104EA0006BFC08B944F00804204670BD00080140BE
:104EB00000100140000C01400246488B92F800228D
:104EC000032A02D1898A40EA01407047FBF770FC4F
:104ED000FDF778FDFCF798FE0948084901600021BC
:104EE00041608160C160016141618161FCF77EFECA
:104EF000FCF7EAFEFFF73CF8FEE700000080014007
:104F00009401002004E000BF11F8013B00F8013BD0
:104F1000521EF9D27047C9B201E000F8011B521EBF
:104F2000FBD2704770B50546D0F82C020C4600261F
:104F3000A04210D0284600F04FF906000BD195F89A
:104F40000102012322462946FFF7CCFA08B1741E5C
:104F50000126C5F82C42304670BD2DE9F0471746B2
:104F60000D460446022903D3D4F81402A84202D8FD
:104F70000220BDE8F08794F8001207F0FF084FF018
:104F80000109012920D0022950D00329F0D1D4F8F9
:104F9000200200EBD5112046FFF7C4FF0028E8D11E
:104FA00040F2FF1101EA85010A194FF07043D2F86F
:104FB000011003EA0121394311700B0A53700B0CE5
:104FC0009370090ED17041E0D4F8200205EB55062C
:104FD00000EB56212046FFF7A5FF0028C9D1C6F3F4
:104FE0000800761C2044E90703D0017868F31F11FC
:104FF00000E03946017084F80492D4F8200200EBF6
:1050000056212046FFF78EFF0028B2D1C6F30801D3
:105010002144EA0702D0C7F3071205E00A78C7F374
:10502000032302F0F0021A430A700FE0D4F82002C2
:1050300000EB15212046FFF775FF002899D1E9B252
:1050400004EB41013A0A81F800804A7084F8049226
:105050008FE700000C4B10B50422191D0B48FFF719
:1050600085FB00BF00BF00BF00BF0749091DA1F1BC
:1050700010030878D8704A781A71498849BA19819A
:10508000BDE81040FFF756BA84010020101F002031
:105090002DE9F0410F460646022917D3D6F814022F
:1050A000B84213D9002523E039463046FFF70CFEFD
:1050B000040021D0012C09D0601C09D000223946FF
:1050C0003046FFF74AFF050016D103E0022513E042
:1050D000012511E0D6F81002411C08D0401CC6F88A
:1050E000100296F8050240F0010086F805022746F6
:1050F000D6F81402B842D7D82846BDE8F08110B5DA
:1051000000240020FBF7F0F8641CE4B20A2CF8D36A
:1051100010BD81760A0AC2760A0C0275090E417525
:10512000704770B5044600F057F8050052D194F866
:105130000002032846D194F80502012842D1420218
:1051400000212046FFF7E7FE552084F8FE01AA2043
:1051500084F8FF015220207060706120A07041210E
:10516000E170722284F8E42184F8E52184F8E611E4
:1051700084F8E701D4F8100284F8E801010A84F801
:10518000E911010C84F8EA11000E84F8EB01D4F85F
:105190000C0284F8EC01010A84F8ED11010C84F88A
:1051A000EE11000E84F8EF01D4F81C220123521CEA
:1051B000C4F82C2294F801022146FFF7ADF9002033
:1051C00084F80502002294F801021146FFF77CF9E9
:1051D00000B10125284670BD2DE9F041044690F844
:1051E0000402002728B3D4F82C5294F801020123BA
:1051F0002A462146FFF790F908B1012719E000205F
:1052000084F80402D4F82002D4F81812281A88422C
:105210000FD294F803620AE0D4F81802012305447F
:1052200094F801022A462146FFF776F9761E022EEF
:10523000F2D23846BDE8F08110B588B1D0F800123E
:1052400071B191F800225AB1B1F80622B0F8040207
:10525000824205D191F80102FFF752F9C00700D050
:10526000092010BDAD280008592900081D29000893
:1052700079290008CD28000880818283848586876B
:1052800088898A8B8C8D8E8F909192939495969726
:105290009899AD9B8C9DAE9FA021A2A3A4A5A6A783
:1052A000A8A9AAABACADAEAFB0B1B2B3B4B5B6B706
:1052B000B8B9BABBBCBDBEBFC0C1C2C3C4C5C6C7F6
:1052C000C8C9CACBCCCDCECFD0D1D2D3D4D5D6D7E6
:1052D000D8D9DADBDCDDDEDFC0C1C2C3C4C5C6C7D6
:1052E000C8C9CACBCCCDCECFD0D1D2D3D4D5D6F7A6
:1052F000D8D9DADBDCDDDE9F00040002000180008B
:10530000400020001000080004000200000000809F
:10531000004000200010000800400020001000089D
:10532000000400020000000000000000010203046D
:1053300006070809545300080000002094010000EB
:10534000DC0100081454000894010020242400000B
:10535000C83C000881136D2D1B089D041AA9041A6E
:10536000D1041AFD041A4D041A7904170403090420
:105370001201140202021640830440572602010261
:10538000030113C1031B08BD041AB9041AE504196B
:1053900013E184A24A04130A0632022A40241C099B
:1053A000024343111CC032091F1B01020B130524C9
:1053B0001610010524011009010424020205240627
:1053C000170107058203081C10090479320A1D071A
:1053D000050102432C070581070938442A40072AA2
:1053E0008107112B0907440A2204440A16FF4413BB
:1053F000592B1408C72A1408352C42081A03101A0E
:1054000085101A9904C11A41181A35041A4D041A44
:045410002904011C4E
:0400000508000131BD
:00000001FF
